{
  "contractName": "Market",
  "abi": [
    {
      "anonymous": false,
      "inputs": [
        {
          "indexed": false,
          "internalType": "uint256",
          "name": "listingId",
          "type": "uint256"
        },
        {
          "indexed": false,
          "internalType": "address",
          "name": "seller",
          "type": "address"
        }
      ],
      "name": "Cancel",
      "type": "event"
    },
    {
      "anonymous": false,
      "inputs": [
        {
          "indexed": false,
          "internalType": "uint256",
          "name": "listingId",
          "type": "uint256"
        },
        {
          "indexed": false,
          "internalType": "address",
          "name": "seller",
          "type": "address"
        },
        {
          "indexed": false,
          "internalType": "address",
          "name": "token",
          "type": "address"
        },
        {
          "indexed": false,
          "internalType": "uint256",
          "name": "tokenId",
          "type": "uint256"
        },
        {
          "indexed": false,
          "internalType": "uint256",
          "name": "price",
          "type": "uint256"
        }
      ],
      "name": "Listed",
      "type": "event"
    },
    {
      "anonymous": false,
      "inputs": [
        {
          "indexed": false,
          "internalType": "uint256",
          "name": "listingId",
          "type": "uint256"
        },
        {
          "indexed": false,
          "internalType": "address",
          "name": "buyer",
          "type": "address"
        },
        {
          "indexed": false,
          "internalType": "address",
          "name": "token",
          "type": "address"
        },
        {
          "indexed": false,
          "internalType": "uint256",
          "name": "tokenId",
          "type": "uint256"
        },
        {
          "indexed": false,
          "internalType": "uint256",
          "name": "price",
          "type": "uint256"
        }
      ],
      "name": "Sale",
      "type": "event"
    },
    {
      "inputs": [
        {
          "internalType": "address",
          "name": "token",
          "type": "address"
        },
        {
          "internalType": "uint256",
          "name": "tokenId",
          "type": "uint256"
        },
        {
          "internalType": "uint256",
          "name": "price",
          "type": "uint256"
        }
      ],
      "name": "listToken",
      "outputs": [],
      "stateMutability": "nonpayable",
      "type": "function"
    },
    {
      "inputs": [
        {
          "internalType": "uint256",
          "name": "a",
          "type": "uint256"
        },
        {
          "internalType": "uint256",
          "name": "b",
          "type": "uint256"
        }
      ],
      "name": "add",
      "outputs": [
        {
          "internalType": "uint256",
          "name": "",
          "type": "uint256"
        }
      ],
      "stateMutability": "pure",
      "type": "function"
    },
    {
      "inputs": [
        {
          "internalType": "uint256",
          "name": "listingId",
          "type": "uint256"
        }
      ],
      "name": "getListing",
      "outputs": [
        {
          "components": [
            {
              "internalType": "enum Market.ListingStatus",
              "name": "status",
              "type": "uint8"
            },
            {
              "internalType": "address",
              "name": "seller",
              "type": "address"
            },
            {
              "internalType": "address",
              "name": "token",
              "type": "address"
            },
            {
              "internalType": "uint256",
              "name": "tokenId",
              "type": "uint256"
            },
            {
              "internalType": "uint256",
              "name": "price",
              "type": "uint256"
            }
          ],
          "internalType": "struct Market.Listing",
          "name": "",
          "type": "tuple"
        }
      ],
      "stateMutability": "view",
      "type": "function"
    },
    {
      "inputs": [
        {
          "internalType": "uint256",
          "name": "listingId",
          "type": "uint256"
        }
      ],
      "name": "buyToken",
      "outputs": [],
      "stateMutability": "payable",
      "type": "function"
    },
    {
      "inputs": [
        {
          "internalType": "uint256",
          "name": "listingId",
          "type": "uint256"
        }
      ],
      "name": "cancel",
      "outputs": [],
      "stateMutability": "nonpayable",
      "type": "function"
    }
  ],
  "bytecode": "0x60806040526000805534801561001457600080fd5b50611130806100246000396000f3fe608060405260043610610067576000357c010000000000000000000000000000000000000000000000000000000090048063107a274a1461006c5780632d296bf1146100a957806340e58ee5146100c5578063771602f7146100ee5780637e07590d1461012b575b600080fd5b34801561007857600080fd5b50610093600480360381019061008e9190610b12565b610154565b6040516100a09190610c6e565b60405180910390f35b6100c360048036038101906100be9190610b12565b61027c565b005b3480156100d157600080fd5b506100ec60048036038101906100e79190610b12565b6105a2565b005b3480156100fa57600080fd5b5061011560048036038101906101109190610c89565b610804565b6040516101229190610cd8565b60405180910390f35b34801561013757600080fd5b50610152600480360381019061014d9190610d1f565b61081a565b005b61015c610a6a565b600160008381526020019081526020016000206040518060a00160405290816000820160009054906101000a900460ff16600281111561019f5761019e610b3f565b5b60028111156101b1576101b0610b3f565b5b81526020016000820160019054906101000a900473ffffffffffffffffffffffffffffffffffffffff1673ffffffffffffffffffffffffffffffffffffffff1673ffffffffffffffffffffffffffffffffffffffff1681526020016001820160009054906101000a900473ffffffffffffffffffffffffffffffffffffffff1673ffffffffffffffffffffffffffffffffffffffff1673ffffffffffffffffffffffffffffffffffffffff168152602001600282015481526020016003820154815250509050919050565b60006001600083815260200190815260200160002090508060000160019054906101000a900473ffffffffffffffffffffffffffffffffffffffff1673ffffffffffffffffffffffffffffffffffffffff163373ffffffffffffffffffffffffffffffffffffffff1603610325576040517f08c379a000000000000000000000000000000000000000000000000000000000815260040161031c90610dcf565b60405180910390fd5b6000600281111561033957610338610b3f565b5b8160000160009054906101000a900460ff16600281111561035d5761035c610b3f565b5b1461039d576040517f08c379a000000000000000000000000000000000000000000000000000000000815260040161039490610e3b565b60405180910390fd5b80600301543410156103e4576040517f08c379a00000000000000000000000000000000000000000000000000000000081526004016103db90610ea7565b60405180910390fd5b8060010160009054906101000a900473ffffffffffffffffffffffffffffffffffffffff1673ffffffffffffffffffffffffffffffffffffffff166323b872dd303384600201546040518463ffffffff167c010000000000000000000000000000000000000000000000000000000002815260040161046593929190610ed6565b600060405180830381600087803b15801561047f57600080fd5b505af1158015610493573d6000803e3d6000fd5b505050508060000160019054906101000a900473ffffffffffffffffffffffffffffffffffffffff1673ffffffffffffffffffffffffffffffffffffffff166108fc82600301549081150290604051600060405180830381858888f19350505050158015610505573d6000803e3d6000fd5b5060018160000160006101000a81548160ff0219169083600281111561052e5761052d610b3f565b5b02179055507ff3debaf22196a6ddf52a60fa71058cd7edf5e25bb98f4e96c994a5d4a9b0dd3e82338360010160009054906101000a900473ffffffffffffffffffffffffffffffffffffffff1684600201548560030154604051610596959493929190610f0d565b60405180910390a15050565b60006001600083815260200190815260200160002090508060000160019054906101000a900473ffffffffffffffffffffffffffffffffffffffff1673ffffffffffffffffffffffffffffffffffffffff163373ffffffffffffffffffffffffffffffffffffffff161461064b576040517f08c379a000000000000000000000000000000000000000000000000000000000815260040161064290610fac565b60405180910390fd5b6000600281111561065f5761065e610b3f565b5b8160000160009054906101000a900460ff16600281111561068357610682610b3f565b5b146106c3576040517f08c379a00000000000000000000000000000000000000000000000000000000081526004016106ba90610e3b565b60405180910390fd5b60028160000160006101000a81548160ff021916908360028111156106eb576106ea610b3f565b5b02179055508060010160009054906101000a900473ffffffffffffffffffffffffffffffffffffffff1673ffffffffffffffffffffffffffffffffffffffff166323b872dd303384600201546040518463ffffffff167c010000000000000000000000000000000000000000000000000000000002815260040161077193929190610ed6565b600060405180830381600087803b15801561078b57600080fd5b505af115801561079f573d6000803e3d6000fd5b505050507f8dd3c361eb2366ff27c2db0eb07b9261f1d052570742ab8c9a0c326f37aa576d828260000160019054906101000a900473ffffffffffffffffffffffffffffffffffffffff166040516107f8929190610fcc565b60405180910390a15050565b600081836108129190611024565b905092915050565b8273ffffffffffffffffffffffffffffffffffffffff166323b872dd3330856040518463ffffffff167c010000000000000000000000000000000000000000000000000000000002815260040161087393929190610ed6565b600060405180830381600087803b15801561088d57600080fd5b505af11580156108a1573d6000803e3d6000fd5b5050505060006040518060a00160405280600060028111156108c6576108c5610b3f565b5b81526020013373ffffffffffffffffffffffffffffffffffffffff1681526020018573ffffffffffffffffffffffffffffffffffffffff16815260200184815260200183815250905060008081548092919061092190611058565b919050555080600160008054815260200190815260200160002060008201518160000160006101000a81548160ff0219169083600281111561096657610965610b3f565b5b021790555060208201518160000160016101000a81548173ffffffffffffffffffffffffffffffffffffffff021916908373ffffffffffffffffffffffffffffffffffffffff16021790555060408201518160010160006101000a81548173ffffffffffffffffffffffffffffffffffffffff021916908373ffffffffffffffffffffffffffffffffffffffff16021790555060608201518160020155608082015181600301559050507f723f73331eaee88eec7fc68ef60ab6ed15e4b90d0472b55eb92fa43910bab6dd600054338686670de0b6b3a764000087610a4b91906110a0565b604051610a5c959493929190610f0d565b60405180910390a150505050565b6040518060a0016040528060006002811115610a8957610a88610b3f565b5b8152602001600073ffffffffffffffffffffffffffffffffffffffff168152602001600073ffffffffffffffffffffffffffffffffffffffff16815260200160008152602001600081525090565b600080fd5b6000819050919050565b610aef81610adc565b8114610afa57600080fd5b50565b600081359050610b0c81610ae6565b92915050565b600060208284031215610b2857610b27610ad7565b5b6000610b3684828501610afd565b91505092915050565b7f4e487b7100000000000000000000000000000000000000000000000000000000600052602160045260246000fd5b60038110610b7f57610b7e610b3f565b5b50565b6000819050610b9082610b6e565b919050565b6000610ba082610b82565b9050919050565b610bb081610b95565b82525050565b600073ffffffffffffffffffffffffffffffffffffffff82169050919050565b6000610be182610bb6565b9050919050565b610bf181610bd6565b82525050565b610c0081610adc565b82525050565b60a082016000820151610c1c6000850182610ba7565b506020820151610c2f6020850182610be8565b506040820151610c426040850182610be8565b506060820151610c556060850182610bf7565b506080820151610c686080850182610bf7565b50505050565b600060a082019050610c836000830184610c06565b92915050565b60008060408385031215610ca057610c9f610ad7565b5b6000610cae85828601610afd565b9250506020610cbf85828601610afd565b9150509250929050565b610cd281610adc565b82525050565b6000602082019050610ced6000830184610cc9565b92915050565b610cfc81610bd6565b8114610d0757600080fd5b50565b600081359050610d1981610cf3565b92915050565b600080600060608486031215610d3857610d37610ad7565b5b6000610d4686828701610d0a565b9350506020610d5786828701610afd565b9250506040610d6886828701610afd565b9150509250925092565b600082825260208201905092915050565b7f53656c6c65722063616e206e6f74206265206275796572000000000000000000600082015250565b6000610db9601783610d72565b9150610dc482610d83565b602082019050919050565b60006020820190508181036000830152610de881610dac565b9050919050565b7f4c697374696e67206973206e6f74206163746976650000000000000000000000600082015250565b6000610e25601583610d72565b9150610e3082610def565b602082019050919050565b60006020820190508181036000830152610e5481610e18565b9050919050565b7f496e73756666696369656e74207061796d656e74000000000000000000000000600082015250565b6000610e91601483610d72565b9150610e9c82610e5b565b602082019050919050565b60006020820190508181036000830152610ec081610e84565b9050919050565b610ed081610bd6565b82525050565b6000606082019050610eeb6000830186610ec7565b610ef86020830185610ec7565b610f056040830184610cc9565b949350505050565b600060a082019050610f226000830188610cc9565b610f2f6020830187610ec7565b610f3c6040830186610ec7565b610f496060830185610cc9565b610f566080830184610cc9565b9695505050505050565b7f4f6e6c792073656c6c65722063616e2063616e63656c206c697374696e670000600082015250565b6000610f96601e83610d72565b9150610fa182610f60565b602082019050919050565b60006020820190508181036000830152610fc581610f89565b9050919050565b6000604082019050610fe16000830185610cc9565b610fee6020830184610ec7565b9392505050565b7f4e487b7100000000000000000000000000000000000000000000000000000000600052601160045260246000fd5b600061102f82610adc565b915061103a83610adc565b925082820190508082111561105257611051610ff5565b5b92915050565b600061106382610adc565b91507fffffffffffffffffffffffffffffffffffffffffffffffffffffffffffffffff820361109557611094610ff5565b5b600182019050919050565b60006110ab82610adc565b91506110b683610adc565b9250817fffffffffffffffffffffffffffffffffffffffffffffffffffffffffffffffff04831182151516156110ef576110ee610ff5565b5b82820290509291505056fea26469706673582212203e74bc182da8bd30a1dcc1f71e3359d1727c969844485a151d5db0b96b79e9de64736f6c63430008100033",
  "immutableReferences": {},
  "source": "// SPDX-License-Identifier: MIT\r\npragma solidity ^0.8.15;\r\n\r\nimport \"./IERC721.sol\";\r\n\r\ncontract Market {\r\n\r\n\r\n    // public- anyone can call\r\n    // private - only this contract\r\n    // internal - only this contract and inheriting contracts\r\n    // external - only external calls\r\n    \r\n    enum ListingStatus {\r\n        Active,\r\n        Sold,\r\n        Cancelled\r\n    }\r\n\r\n    struct Listing {\r\n        ListingStatus status;\r\n        address seller;\r\n        address token;\r\n        uint tokenId;\r\n        uint price;\r\n    }\r\n\r\n    event Listed (\r\n        uint listingId,\r\n        address seller,\r\n        address token,\r\n        uint tokenId,\r\n        uint price\r\n    );\r\n\r\n    event Sale (\r\n        uint listingId,\r\n        address buyer,\r\n        address token,\r\n        uint tokenId,\r\n        uint price\r\n    );\r\n\r\n    event Cancel (\r\n        uint listingId,\r\n        address seller\r\n    );\r\n\r\n    uint private _listingId = 0; \r\n    mapping(uint => Listing) private _listings;\r\n\r\n    function listToken(address token, uint tokenId, uint price) public {\r\n        \r\n        IERC721(token).transferFrom(msg.sender, address(this), tokenId);\r\n\r\n        Listing memory listing = Listing (\r\n            ListingStatus.Active,\r\n            msg.sender,\r\n            token,\r\n            tokenId,\r\n            price\r\n        );\r\n        _listingId++;\r\n        _listings[_listingId] = listing;\r\n\r\n        emit Listed( \r\n            _listingId,\r\n            msg.sender,\r\n            token,\r\n            tokenId,\r\n            price * 1 ether\r\n        );\r\n    }\r\n\r\n\r\n    // function can read and write\r\n    // view - read-only\r\n    // pure - no read no write\r\n\r\n    function add(uint a, uint b) public pure returns (uint) {\r\n        return a + b;\r\n    }\r\n\r\n    function getListing(uint listingId) public view returns (Listing memory) {\r\n        return _listings[listingId];\r\n    } \r\n\r\n    function buyToken(uint listingId) external payable {\r\n        Listing storage listing = _listings[listingId];\r\n        \r\n\r\n        require(msg.sender != listing.seller, \"Seller can not be buyer\");\r\n        require(listing.status == ListingStatus.Active, \"Listing is not active\");\r\n\r\n        require(msg.value >= listing.price, \"Insufficient payment\");\r\n\r\n        IERC721(listing.token).transferFrom(address(this), msg.sender, listing.tokenId);\r\n        payable (listing.seller).transfer(listing.price);\r\n\r\n        listing.status = ListingStatus.Sold;\r\n\r\n        emit Sale (\r\n            listingId,\r\n            msg.sender,\r\n            listing.token,\r\n            listing.tokenId,\r\n            listing.price\r\n        );\r\n    }\r\n\r\n    function cancel(uint listingId) public {\r\n        Listing storage listing = _listings[listingId];\r\n\r\n        require(msg.sender == listing.seller, \"Only seller can cancel listing\");    \r\n        require(listing.status == ListingStatus.Active, \"Listing is not active\");\r\n\r\n        listing.status = ListingStatus.Cancelled;\r\n        IERC721(listing.token).transferFrom(address(this), msg.sender, listing.tokenId);\r\n\r\n        emit Cancel (\r\n            listingId, listing.seller\r\n        );\r\n    }\r\n\r\n}",
  "sourcePath": "D:\\mub\\selfImprovement\\Blockchain\\3_NFT\\1_NFT-MARKETPLACE\\contracts\\Market.sol",
  "compiler": {
    "name": "solc",
    "version": "0.8.16+commit.07a7930e.Emscripten.clang"
  },
  "schemaVersion": "3.4.7",
  "updatedAt": "2022-08-22T12:08:16.717Z",
  "devdoc": {
    "kind": "dev",
    "methods": {},
    "version": 1
  },
  "userdoc": {
    "kind": "user",
    "methods": {},
    "version": 1
  }
}